{
  "contractName": "project",
  "abi": [
    {
      "constant": true,
      "inputs": [],
      "name": "owner",
      "outputs": [
        {
          "name": "",
          "type": "address"
        }
      ],
      "payable": false,
      "stateMutability": "view",
      "type": "function"
    },
    {
      "constant": true,
      "inputs": [
        {
          "name": "",
          "type": "uint256"
        }
      ],
      "name": "AddressArray",
      "outputs": [
        {
          "name": "",
          "type": "address"
        }
      ],
      "payable": false,
      "stateMutability": "view",
      "type": "function"
    },
    {
      "constant": false,
      "inputs": [],
      "name": "AddAdress",
      "outputs": [],
      "payable": false,
      "stateMutability": "nonpayable",
      "type": "function"
    },
    {
      "constant": true,
      "inputs": [],
      "name": "lengthOfArray",
      "outputs": [
        {
          "name": "",
          "type": "uint256"
        }
      ],
      "payable": false,
      "stateMutability": "view",
      "type": "function"
    },
    {
      "constant": false,
      "inputs": [
        {
          "name": "_name",
          "type": "string"
        },
        {
          "name": "_gender",
          "type": "string"
        },
        {
          "name": "_age",
          "type": "uint256"
        }
      ],
      "name": "SignupForPatient",
      "outputs": [],
      "payable": false,
      "stateMutability": "nonpayable",
      "type": "function"
    },
    {
      "constant": false,
      "inputs": [
        {
          "name": "_name",
          "type": "string"
        },
        {
          "name": "_specialty",
          "type": "string"
        },
        {
          "name": "_year",
          "type": "uint256"
        }
      ],
      "name": "SignupForDoctor",
      "outputs": [],
      "payable": false,
      "stateMutability": "nonpayable",
      "type": "function"
    }
  ],
  "bytecode": "0x608060405234801561001057600080fd5b50610a41806100206000396000f3fe608060405234801561001057600080fd5b50600436106100625760003560e01c8063164d62b914610067578063238bf479146101c35780632fd508c91461031f5780638da5cb5b1461033d578063a1d43e2114610387578063c3b2cef214610391575b600080fd5b6101c16004803603606081101561007d57600080fd5b810190808035906020019064010000000081111561009a57600080fd5b8201836020820111156100ac57600080fd5b803590602001918460018302840111640100000000831117156100ce57600080fd5b91908080601f016020809104026020016040519081016040528093929190818152602001838380828437600081840152601f19601f8201169050808301925050505050505091929192908035906020019064010000000081111561013157600080fd5b82018360208201111561014357600080fd5b8035906020019184600183028401116401000000008311171561016557600080fd5b91908080601f016020809104026020016040519081016040528093929190818152602001838380828437600081840152601f19601f820116905080830192505050505050509192919290803590602001909291905050506103ff565b005b61031d600480360360608110156101d957600080fd5b81019080803590602001906401000000008111156101f657600080fd5b82018360208201111561020857600080fd5b8035906020019184600183028401116401000000008311171561022a57600080fd5b91908080601f016020809104026020016040519081016040528093929190818152602001838380828437600081840152601f19601f8201169050808301925050505050505091929192908035906020019064010000000081111561028d57600080fd5b82018360208201111561029f57600080fd5b803590602001918460018302840111640100000000831117156102c157600080fd5b91908080601f016020809104026020016040519081016040528093929190818152602001838380828437600081840152601f19601f820116905080830192505050505050509192919290803590602001909291905050506105f5565b005b6103276107eb565b6040518082815260200191505060405180910390f35b6103456107f8565b604051808273ffffffffffffffffffffffffffffffffffffffff1673ffffffffffffffffffffffffffffffffffffffff16815260200191505060405180910390f35b61038f61081d565b005b6103bd600480360360208110156103a757600080fd5b8101908080359060200190929190505050610934565b604051808273ffffffffffffffffffffffffffffffffffffffff1673ffffffffffffffffffffffffffffffffffffffff16815260200191505060405180910390f35b336000806101000a81548173ffffffffffffffffffffffffffffffffffffffff021916908373ffffffffffffffffffffffffffffffffffffffff1602179055506000600260008060009054906101000a900473ffffffffffffffffffffffffffffffffffffffff1673ffffffffffffffffffffffffffffffffffffffff1673ffffffffffffffffffffffffffffffffffffffff168152602001908152602001600020905060013390806001815401808255809150509060018203906000526020600020016000909192909190916101000a81548173ffffffffffffffffffffffffffffffffffffffff021916908373ffffffffffffffffffffffffffffffffffffffff160217905550508060030160009054906101000a900460ff161561052557600080fd5b604051806080016040528085815260200184815260200183815260200160011515815250600260003373ffffffffffffffffffffffffffffffffffffffff1673ffffffffffffffffffffffffffffffffffffffff16815260200190815260200160002060008201518160000190805190602001906105a4929190610970565b5060208201518160010190805190602001906105c1929190610970565b506040820151816002015560608201518160030160006101000a81548160ff02191690831515021790555090505050505050565b336000806101000a81548173ffffffffffffffffffffffffffffffffffffffff021916908373ffffffffffffffffffffffffffffffffffffffff1602179055506000600360008060009054906101000a900473ffffffffffffffffffffffffffffffffffffffff1673ffffffffffffffffffffffffffffffffffffffff1673ffffffffffffffffffffffffffffffffffffffff168152602001908152602001600020905060013390806001815401808255809150509060018203906000526020600020016000909192909190916101000a81548173ffffffffffffffffffffffffffffffffffffffff021916908373ffffffffffffffffffffffffffffffffffffffff160217905550508060030160009054906101000a900460ff161561071b57600080fd5b604051806080016040528085815260200184815260200183815260200160011515815250600360003373ffffffffffffffffffffffffffffffffffffffff1673ffffffffffffffffffffffffffffffffffffffff168152602001908152602001600020600082015181600001908051906020019061079a929190610970565b5060208201518160010190805190602001906107b7929190610970565b506040820151816002015560608201518160030160006101000a81548160ff02191690831515021790555090505050505050565b6000600180549050905090565b6000809054906101000a900473ffffffffffffffffffffffffffffffffffffffff1681565b600460003373ffffffffffffffffffffffffffffffffffffffff1673ffffffffffffffffffffffffffffffffffffffff16815260200190815260200160002060009054906101000a900460ff161561087457600080fd5b60013390806001815401808255809150509060018203906000526020600020016000909192909190916101000a81548173ffffffffffffffffffffffffffffffffffffffff021916908373ffffffffffffffffffffffffffffffffffffffff160217905550506001600460003373ffffffffffffffffffffffffffffffffffffffff1673ffffffffffffffffffffffffffffffffffffffff16815260200190815260200160002060006101000a81548160ff021916908315150217905550565b6001818154811061094157fe5b906000526020600020016000915054906101000a900473ffffffffffffffffffffffffffffffffffffffff1681565b828054600181600116156101000203166002900490600052602060002090601f016020900481019282601f106109b157805160ff19168380011785556109df565b828001600101855582156109df579182015b828111156109de5782518255916020019190600101906109c3565b5b5090506109ec91906109f0565b5090565b610a1291905b80821115610a0e5760008160009055506001016109f6565b5090565b9056fea165627a7a723058204d7da1e2c7b4df551618cb62ca7abdbc402c10690f4ada524caff89a73e3604a0029",
  "source": "pragma solidity ^0.5.1;\n\ncontract project {\n    \n    struct Doctors{\n        string name;\n        string specialty;\n        uint year;\n        bool set;\n    }\n  \n    struct Patients{\n        string name;\n        string gender;\n        uint age;\n                bool set;\n\n    }\n    \naddress public owner;\naddress[] public AddressArray;\n\nmapping(address => Doctors) mappingDoctors;\nmapping(address => Patients) mappingPatients;\nmapping(address => bool) mappingCheckAdress;\nmapping(address => string) DorP;\n\n\n  function AddAdress() public {\n  //check for old users\n  if (mappingCheckAdress[msg.sender]){\n    revert();\n  } \n  else {\n    AddressArray.push(msg.sender);\n    mappingCheckAdress[msg.sender] = true;\n  }\n }\nfunction lengthOfArray() public view returns(uint)\n{\nreturn AddressArray.length;\n}\n\nfunction SignupForPatient(string memory _name, string memory _gender,uint _age ) public {\n{\n  owner = msg.sender;\n  Patients storage user = mappingPatients[owner];\n     AddressArray.push(msg.sender);\n  require(!user.set);\n   //Store the user\n   mappingPatients[msg.sender] = Patients({\n       name: _name,\n       gender: _gender,\n       age: _age,\n       set: true\n   });\n}\n}\n\nfunction SignupForDoctor(string memory _name, string memory _specialty,uint _year ) public {\n\n  owner = msg.sender;\n  Doctors storage user = mappingDoctors[owner];\n   // Check that the user did not already exist:\n   AddressArray.push(msg.sender);\n  require(!user.set);\n   //Store the user\n   mappingDoctors[msg.sender] = Doctors({\n       name: _name,\n       specialty: _specialty,\n       year: _year,\n       set: true\n   });\n}\n\n\n\n\n}\n\n\n",
  "sourcePath": "/Users/reko/Desktop/project/contracts/project.sol",
  "compiler": {
    "name": "solc",
    "version": "0.5.8+commit.23d335f2.Emscripten.clang"
  },
  "schemaVersion": "3.0.11",
  "updatedAt": "2019-07-21T11:12:13.866Z",
  "devdoc": {
    "methods": {}
  },
  "userdoc": {
    "methods": {}
  }
}